{
  "_format": "hh-sol-artifact-1",
  "contractName": "Chancery",
  "sourceName": "contracts/Chancery.sol",
  "abi": [
    {
      "inputs": [],
      "stateMutability": "nonpayable",
      "type": "constructor"
    },
    {
      "anonymous": false,
      "inputs": [
        {
          "indexed": true,
          "internalType": "address",
          "name": "creator",
          "type": "address"
        },
        {
          "indexed": false,
          "internalType": "string",
          "name": "caseId",
          "type": "string"
        },
        {
          "indexed": false,
          "internalType": "uint256",
          "name": "time",
          "type": "uint256"
        }
      ],
      "name": "CaseCreated",
      "type": "event"
    },
    {
      "anonymous": false,
      "inputs": [
        {
          "indexed": true,
          "internalType": "address",
          "name": "judge",
          "type": "address"
        },
        {
          "indexed": false,
          "internalType": "string",
          "name": "caseId",
          "type": "string"
        },
        {
          "indexed": false,
          "internalType": "uint256",
          "name": "time",
          "type": "uint256"
        }
      ],
      "name": "CaseEnded",
      "type": "event"
    },
    {
      "anonymous": false,
      "inputs": [
        {
          "indexed": false,
          "internalType": "address",
          "name": "account",
          "type": "address"
        }
      ],
      "name": "Paused",
      "type": "event"
    },
    {
      "anonymous": false,
      "inputs": [
        {
          "indexed": false,
          "internalType": "address",
          "name": "account",
          "type": "address"
        }
      ],
      "name": "Unpaused",
      "type": "event"
    },
    {
      "inputs": [
        {
          "internalType": "string[]",
          "name": "_exhibit",
          "type": "string[]"
        },
        {
          "internalType": "uint256",
          "name": "_id",
          "type": "uint256"
        }
      ],
      "name": "addExhibits",
      "outputs": [],
      "stateMutability": "nonpayable",
      "type": "function"
    },
    {
      "inputs": [
        {
          "internalType": "address",
          "name": "newRegistrar",
          "type": "address"
        }
      ],
      "name": "addRegistrar",
      "outputs": [],
      "stateMutability": "nonpayable",
      "type": "function"
    },
    {
      "inputs": [
        {
          "internalType": "uint256",
          "name": "",
          "type": "uint256"
        }
      ],
      "name": "allCaseFiles",
      "outputs": [
        {
          "internalType": "uint256",
          "name": "id",
          "type": "uint256"
        },
        {
          "internalType": "string",
          "name": "caseId",
          "type": "string"
        },
        {
          "internalType": "string",
          "name": "fileHash",
          "type": "string"
        },
        {
          "internalType": "address",
          "name": "judge",
          "type": "address"
        },
        {
          "internalType": "address",
          "name": "clerk",
          "type": "address"
        },
        {
          "internalType": "bool",
          "name": "active",
          "type": "bool"
        }
      ],
      "stateMutability": "view",
      "type": "function"
    },
    {
      "inputs": [],
      "name": "caseAssignedToClerk",
      "outputs": [
        {
          "components": [
            {
              "internalType": "uint256",
              "name": "id",
              "type": "uint256"
            },
            {
              "internalType": "string",
              "name": "caseId",
              "type": "string"
            },
            {
              "internalType": "string",
              "name": "fileHash",
              "type": "string"
            },
            {
              "internalType": "address",
              "name": "judge",
              "type": "address"
            },
            {
              "internalType": "address",
              "name": "clerk",
              "type": "address"
            },
            {
              "internalType": "bool",
              "name": "active",
              "type": "bool"
            },
            {
              "internalType": "string[]",
              "name": "caseExhibits",
              "type": "string[]"
            }
          ],
          "internalType": "struct Chancery.CaseFile[]",
          "name": "",
          "type": "tuple[]"
        }
      ],
      "stateMutability": "view",
      "type": "function"
    },
    {
      "inputs": [],
      "name": "caseAssignedToJudge",
      "outputs": [
        {
          "components": [
            {
              "internalType": "uint256",
              "name": "id",
              "type": "uint256"
            },
            {
              "internalType": "string",
              "name": "caseId",
              "type": "string"
            },
            {
              "internalType": "string",
              "name": "fileHash",
              "type": "string"
            },
            {
              "internalType": "address",
              "name": "judge",
              "type": "address"
            },
            {
              "internalType": "address",
              "name": "clerk",
              "type": "address"
            },
            {
              "internalType": "bool",
              "name": "active",
              "type": "bool"
            },
            {
              "internalType": "string[]",
              "name": "caseExhibits",
              "type": "string[]"
            }
          ],
          "internalType": "struct Chancery.CaseFile[]",
          "name": "",
          "type": "tuple[]"
        }
      ],
      "stateMutability": "view",
      "type": "function"
    },
    {
      "inputs": [],
      "name": "chiefJustice",
      "outputs": [
        {
          "internalType": "address",
          "name": "",
          "type": "address"
        }
      ],
      "stateMutability": "view",
      "type": "function"
    },
    {
      "inputs": [],
      "name": "closedCases",
      "outputs": [
        {
          "components": [
            {
              "internalType": "uint256",
              "name": "id",
              "type": "uint256"
            },
            {
              "internalType": "string",
              "name": "caseId",
              "type": "string"
            },
            {
              "internalType": "string",
              "name": "fileHash",
              "type": "string"
            },
            {
              "internalType": "address",
              "name": "judge",
              "type": "address"
            },
            {
              "internalType": "address",
              "name": "clerk",
              "type": "address"
            },
            {
              "internalType": "bool",
              "name": "active",
              "type": "bool"
            },
            {
              "internalType": "string[]",
              "name": "caseExhibits",
              "type": "string[]"
            }
          ],
          "internalType": "struct Chancery.CaseFile[]",
          "name": "",
          "type": "tuple[]"
        }
      ],
      "stateMutability": "view",
      "type": "function"
    },
    {
      "inputs": [
        {
          "internalType": "string",
          "name": "_caseId",
          "type": "string"
        },
        {
          "internalType": "string",
          "name": "_fileHash",
          "type": "string"
        },
        {
          "internalType": "address",
          "name": "_judge",
          "type": "address"
        },
        {
          "internalType": "address",
          "name": "_clerk",
          "type": "address"
        },
        {
          "internalType": "string[]",
          "name": "_exhibits",
          "type": "string[]"
        }
      ],
      "name": "createCase",
      "outputs": [],
      "stateMutability": "nonpayable",
      "type": "function"
    },
    {
      "inputs": [
        {
          "internalType": "uint256",
          "name": "_id",
          "type": "uint256"
        }
      ],
      "name": "endCase",
      "outputs": [],
      "stateMutability": "nonpayable",
      "type": "function"
    },
    {
      "inputs": [
        {
          "internalType": "address",
          "name": "",
          "type": "address"
        }
      ],
      "name": "judges",
      "outputs": [
        {
          "internalType": "bool",
          "name": "",
          "type": "bool"
        }
      ],
      "stateMutability": "view",
      "type": "function"
    },
    {
      "inputs": [],
      "name": "pause",
      "outputs": [],
      "stateMutability": "nonpayable",
      "type": "function"
    },
    {
      "inputs": [],
      "name": "paused",
      "outputs": [
        {
          "internalType": "bool",
          "name": "",
          "type": "bool"
        }
      ],
      "stateMutability": "view",
      "type": "function"
    },
    {
      "inputs": [
        {
          "internalType": "uint256",
          "name": "_id",
          "type": "uint256"
        },
        {
          "internalType": "address",
          "name": "newJudge",
          "type": "address"
        },
        {
          "internalType": "address",
          "name": "newClerk",
          "type": "address"
        }
      ],
      "name": "reassignCase",
      "outputs": [],
      "stateMutability": "nonpayable",
      "type": "function"
    },
    {
      "inputs": [
        {
          "internalType": "address",
          "name": "",
          "type": "address"
        }
      ],
      "name": "registrars",
      "outputs": [
        {
          "internalType": "bool",
          "name": "",
          "type": "bool"
        }
      ],
      "stateMutability": "view",
      "type": "function"
    },
    {
      "inputs": [
        {
          "internalType": "address",
          "name": "newChiefJustice",
          "type": "address"
        }
      ],
      "name": "removeChiefJustice",
      "outputs": [],
      "stateMutability": "nonpayable",
      "type": "function"
    },
    {
      "inputs": [
        {
          "internalType": "address",
          "name": "_registrar",
          "type": "address"
        }
      ],
      "name": "removeRegistrar",
      "outputs": [],
      "stateMutability": "nonpayable",
      "type": "function"
    },
    {
      "inputs": [],
      "name": "unpause",
      "outputs": [],
      "stateMutability": "nonpayable",
      "type": "function"
    },
    {
      "inputs": [
        {
          "internalType": "uint256",
          "name": "_id",
          "type": "uint256"
        },
        {
          "internalType": "string",
          "name": "_filehash",
          "type": "string"
        }
      ],
      "name": "updateCase",
      "outputs": [],
      "stateMutability": "nonpayable",
      "type": "function"
    }
  ],
  "bytecode": "0x608060405234801561001057600080fd5b5060008060006101000a81548160ff02191690831515021790555033600260006101000a81548173ffffffffffffffffffffffffffffffffffffffff021916908373ffffffffffffffffffffffffffffffffffffffff16021790555061391e8061007b6000396000f3fe608060405234801561001057600080fd5b50600436106101165760003560e01c80638456cb59116100a2578063af92a69311610071578063af92a693146102aa578063ba904eed146102c6578063c8ba108e146102e2578063ce684b33146102fe578063da21ad8b1461031c57610116565b80638456cb591461023857806384f64f0f1461024257806389aeca761461025e578063ae0d1be91461028e57610116565b806342c179dd116100e957806342c179dd1461017b5780635c975abb146101995780636736799a146101b75780637124b817146101d35780638422a2f21461020857610116565b80632758308f1461011b5780633d7407c9146101375780633e54141a146101535780633f4ba83a14610171575b600080fd5b6101356004803603810190610130919061249a565b61033a565b005b610151600480360381019061014c91906124fd565b610416565b005b61015b61055d565b6040516101689190612847565b60405180910390f35b6101796109dc565b005b610183610a76565b6040516101909190612847565b60405180910390f35b6101a1610e7f565b6040516101ae9190612878565b60405180910390f35b6101d160048036038101906101cc91906128f8565b610e95565b005b6101ed60048036038101906101e89190612958565b6110ac565b6040516101ff969594939291906129ed565b60405180910390f35b610222600480360381019061021d919061249a565b611245565b60405161022f9190612878565b60405180910390f35b610240611265565b005b61025c60048036038101906102579190612b8c565b6112ff565b005b6102786004803603810190610273919061249a565b611790565b6040516102859190612878565b60405180910390f35b6102a860048036038101906102a39190612958565b6117b0565b005b6102c460048036038101906102bf919061249a565b611956565b005b6102e060048036038101906102db919061249a565b611a49565b005b6102fc60048036038101906102f79190612c5e565b611b3c565b005b610306611cdf565b6040516103139190612847565b60405180910390f35b61032461215e565b6040516103319190612cba565b60405180910390f35b610342612184565b600260009054906101000a900473ffffffffffffffffffffffffffffffffffffffff1673ffffffffffffffffffffffffffffffffffffffff163373ffffffffffffffffffffffffffffffffffffffff16146103d2576040517f08c379a00000000000000000000000000000000000000000000000000000000081526004016103c990612d47565b60405180910390fd5b80600260006101000a81548173ffffffffffffffffffffffffffffffffffffffff021916908373ffffffffffffffffffffffffffffffffffffffff16021790555050565b61041e612184565b600260009054906101000a900473ffffffffffffffffffffffffffffffffffffffff1673ffffffffffffffffffffffffffffffffffffffff163373ffffffffffffffffffffffffffffffffffffffff16146104ae576040517f08c379a00000000000000000000000000000000000000000000000000000000081526004016104a590612d47565b60405180910390fd5b816004600085815260200190815260200160002060030160006101000a81548173ffffffffffffffffffffffffffffffffffffffff021916908373ffffffffffffffffffffffffffffffffffffffff160217905550806004600085815260200190815260200160002060040160006101000a81548173ffffffffffffffffffffffffffffffffffffffff021916908373ffffffffffffffffffffffffffffffffffffffff160217905550505050565b606060008060015467ffffffffffffffff81111561057e5761057d612a61565b5b6040519080825280602002602001820160405280156105b757816020015b6105a46122e3565b81526020019060019003908161059c5790505b50905060005b6001548110156109d35760011515600460006001846105dc9190612d96565b815260200190815260200160002060040160149054906101000a900460ff161515036109c0573373ffffffffffffffffffffffffffffffffffffffff166004600060018461062a9190612d96565b815260200190815260200160002060030160009054906101000a900473ffffffffffffffffffffffffffffffffffffffff1673ffffffffffffffffffffffffffffffffffffffff16036109bf5760006004600060018461068a9190612d96565b81526020019081526020016000206000015490506000600460008381526020019081526020016000209050806040518060e0016040529081600082015481526020016001820180546106db90612df9565b80601f016020809104026020016040519081016040528092919081815260200182805461070790612df9565b80156107545780601f1061072957610100808354040283529160200191610754565b820191906000526020600020905b81548152906001019060200180831161073757829003601f168201915b5050505050815260200160028201805461076d90612df9565b80601f016020809104026020016040519081016040528092919081815260200182805461079990612df9565b80156107e65780601f106107bb576101008083540402835291602001916107e6565b820191906000526020600020905b8154815290600101906020018083116107c957829003601f168201915b505050505081526020016003820160009054906101000a900473ffffffffffffffffffffffffffffffffffffffff1673ffffffffffffffffffffffffffffffffffffffff1673ffffffffffffffffffffffffffffffffffffffff1681526020016004820160009054906101000a900473ffffffffffffffffffffffffffffffffffffffff1673ffffffffffffffffffffffffffffffffffffffff1673ffffffffffffffffffffffffffffffffffffffff1681526020016004820160149054906101000a900460ff1615151515815260200160058201805480602002602001604051908101604052809291908181526020016000905b828210156109875783829060005260206000200180546108fa90612df9565b80601f016020809104026020016040519081016040528092919081815260200182805461092690612df9565b80156109735780601f1061094857610100808354040283529160200191610973565b820191906000526020600020905b81548152906001019060200180831161095657829003601f168201915b5050505050815260200190600101906108db565b50505050815250508486815181106109a2576109a1612e2a565b5b60200260200101819052506001856109ba9190612d96565b945050505b5b80806109cb90612e59565b9150506105bd565b50809250505090565b600260009054906101000a900473ffffffffffffffffffffffffffffffffffffffff1673ffffffffffffffffffffffffffffffffffffffff163373ffffffffffffffffffffffffffffffffffffffff1614610a6c576040517f08c379a0000000000000000000000000000000000000000000000000000000008152600401610a6390612d47565b60405180910390fd5b610a746121ce565b565b606060008060015467ffffffffffffffff811115610a9757610a96612a61565b5b604051908082528060200260200182016040528015610ad057816020015b610abd6122e3565b815260200190600190039081610ab55790505b50905060005b600154811015610e76576000151560046000600184610af59190612d96565b815260200190815260200160002060040160149054906101000a900460ff16151503610e6357600060046000600184610b2e9190612d96565b81526020019081526020016000206000015490506000600460008381526020019081526020016000209050806040518060e001604052908160008201548152602001600182018054610b7f90612df9565b80601f0160208091040260200160405190810160405280929190818152602001828054610bab90612df9565b8015610bf85780601f10610bcd57610100808354040283529160200191610bf8565b820191906000526020600020905b815481529060010190602001808311610bdb57829003601f168201915b50505050508152602001600282018054610c1190612df9565b80601f0160208091040260200160405190810160405280929190818152602001828054610c3d90612df9565b8015610c8a5780601f10610c5f57610100808354040283529160200191610c8a565b820191906000526020600020905b815481529060010190602001808311610c6d57829003601f168201915b505050505081526020016003820160009054906101000a900473ffffffffffffffffffffffffffffffffffffffff1673ffffffffffffffffffffffffffffffffffffffff1673ffffffffffffffffffffffffffffffffffffffff1681526020016004820160009054906101000a900473ffffffffffffffffffffffffffffffffffffffff1673ffffffffffffffffffffffffffffffffffffffff1673ffffffffffffffffffffffffffffffffffffffff1681526020016004820160149054906101000a900460ff1615151515815260200160058201805480602002602001604051908101604052809291908181526020016000905b82821015610e2b578382906000526020600020018054610d9e90612df9565b80601f0160208091040260200160405190810160405280929190818152602001828054610dca90612df9565b8015610e175780601f10610dec57610100808354040283529160200191610e17565b820191906000526020600020905b815481529060010190602001808311610dfa57829003601f168201915b505050505081526020019060010190610d7f565b5050505081525050848681518110610e4657610e45612e2a565b5b6020026020010181905250600185610e5e9190612d96565b945050505b8080610e6e90612e59565b915050610ad6565b50809250505090565b60008060009054906101000a900460ff16905090565b610e9d612184565b6004600082815260200190815260200160002060040160149054906101000a900460ff16610f00576040517f08c379a0000000000000000000000000000000000000000000000000000000008152600401610ef790612f13565b60405180910390fd5b6004600082815260200190815260200160002060030160009054906101000a900473ffffffffffffffffffffffffffffffffffffffff1673ffffffffffffffffffffffffffffffffffffffff163373ffffffffffffffffffffffffffffffffffffffff161480610fd157506004600082815260200190815260200160002060040160009054906101000a900473ffffffffffffffffffffffffffffffffffffffff1673ffffffffffffffffffffffffffffffffffffffff163373ffffffffffffffffffffffffffffffffffffffff16145b611010576040517f08c379a000000000000000000000000000000000000000000000000000000000815260040161100790612fa5565b60405180910390fd5b60005b838390508110156110a6576004600083815260200190815260200160002060050184848381811061104757611046612e2a565b5b90506020028101906110599190612fd4565b909180600181540180825580915050600190039060005260206000200160009091929091929091929091925091826110929291906131ee565b50808061109e90612e59565b915050611013565b50505050565b60046020528060005260406000206000915090508060000154908060010180546110d590612df9565b80601f016020809104026020016040519081016040528092919081815260200182805461110190612df9565b801561114e5780601f106111235761010080835404028352916020019161114e565b820191906000526020600020905b81548152906001019060200180831161113157829003601f168201915b50505050509080600201805461116390612df9565b80601f016020809104026020016040519081016040528092919081815260200182805461118f90612df9565b80156111dc5780601f106111b1576101008083540402835291602001916111dc565b820191906000526020600020905b8154815290600101906020018083116111bf57829003601f168201915b5050505050908060030160009054906101000a900473ffffffffffffffffffffffffffffffffffffffff16908060040160009054906101000a900473ffffffffffffffffffffffffffffffffffffffff16908060040160149054906101000a900460ff16905086565b60056020528060005260406000206000915054906101000a900460ff1681565b600260009054906101000a900473ffffffffffffffffffffffffffffffffffffffff1673ffffffffffffffffffffffffffffffffffffffff163373ffffffffffffffffffffffffffffffffffffffff16146112f5576040517f08c379a00000000000000000000000000000000000000000000000000000000081526004016112ec90612d47565b60405180910390fd5b6112fd612230565b565b611307612184565b600660003373ffffffffffffffffffffffffffffffffffffffff1673ffffffffffffffffffffffffffffffffffffffff16815260200190815260200160002060009054906101000a900460ff16806113ac5750600260009054906101000a900473ffffffffffffffffffffffffffffffffffffffff1673ffffffffffffffffffffffffffffffffffffffff163373ffffffffffffffffffffffffffffffffffffffff16145b6113eb576040517f08c379a00000000000000000000000000000000000000000000000000000000081526004016113e290613330565b60405180910390fd5b600086511161142f576040517f08c379a00000000000000000000000000000000000000000000000000000000081526004016114269061339c565b60405180910390fd5b6000855111611473576040517f08c379a000000000000000000000000000000000000000000000000000000000815260040161146a90613408565b60405180910390fd5b600073ffffffffffffffffffffffffffffffffffffffff168473ffffffffffffffffffffffffffffffffffffffff16036114e2576040517f08c379a00000000000000000000000000000000000000000000000000000000081526004016114d990613474565b60405180910390fd5b600073ffffffffffffffffffffffffffffffffffffffff168373ffffffffffffffffffffffffffffffffffffffff1603611551576040517f08c379a000000000000000000000000000000000000000000000000000000000815260040161154890613474565b60405180910390fd5b60008282905011611597576040517f08c379a000000000000000000000000000000000000000000000000000000000815260040161158e906134e0565b60405180910390fd5b600160008154809291906115aa90612e59565b91905055506040518060e0016040528060015481526020018781526020018681526020018573ffffffffffffffffffffffffffffffffffffffff1681526020018473ffffffffffffffffffffffffffffffffffffffff16815260200160011515815260200183839061161c91906135b3565b81525060046000600154815260200190815260200160002060008201518160000155602082015181600101908161165391906135c8565b50604082015181600201908161166991906135c8565b5060608201518160030160006101000a81548173ffffffffffffffffffffffffffffffffffffffff021916908373ffffffffffffffffffffffffffffffffffffffff16021790555060808201518160040160006101000a81548173ffffffffffffffffffffffffffffffffffffffff021916908373ffffffffffffffffffffffffffffffffffffffff16021790555060a08201518160040160146101000a81548160ff02191690831515021790555060c082015181600501908051906020019061173492919061234e565b509050503373ffffffffffffffffffffffffffffffffffffffff167fe92edb5f5612b57344c122d36392c67dd83fd4478dc17f5f27b5cf70edca9cd2874260405161178092919061369a565b60405180910390a2505050505050565b60066020528060005260406000206000915054906101000a900460ff1681565b6117b8612184565b6004600082815260200190815260200160002060040160149054906101000a900460ff1661181b576040517f08c379a000000000000000000000000000000000000000000000000000000000815260040161181290612f13565b60405180910390fd5b6004600082815260200190815260200160002060030160009054906101000a900473ffffffffffffffffffffffffffffffffffffffff1673ffffffffffffffffffffffffffffffffffffffff163373ffffffffffffffffffffffffffffffffffffffff16146118bf576040517f08c379a00000000000000000000000000000000000000000000000000000000081526004016118b69061373c565b60405180910390fd5b60006004600083815260200190815260200160002060040160146101000a81548160ff0219169083151502179055503373ffffffffffffffffffffffffffffffffffffffff167fbc6e9b7c53e3cb78a589127e0fdcb5581281560843e0a62fe0ce497121a6fa0a600460008481526020019081526020016000206001014260405161194b9291906137e0565b60405180910390a250565b61195e612184565b600260009054906101000a900473ffffffffffffffffffffffffffffffffffffffff1673ffffffffffffffffffffffffffffffffffffffff163373ffffffffffffffffffffffffffffffffffffffff16146119ee576040517f08c379a00000000000000000000000000000000000000000000000000000000081526004016119e590612d47565b60405180910390fd5b6001600660008373ffffffffffffffffffffffffffffffffffffffff1673ffffffffffffffffffffffffffffffffffffffff16815260200190815260200160002060006101000a81548160ff02191690831515021790555050565b611a51612184565b600260009054906101000a900473ffffffffffffffffffffffffffffffffffffffff1673ffffffffffffffffffffffffffffffffffffffff163373ffffffffffffffffffffffffffffffffffffffff1614611ae1576040517f08c379a0000000000000000000000000000000000000000000000000000000008152600401611ad890612d47565b60405180910390fd5b6000600660008373ffffffffffffffffffffffffffffffffffffffff1673ffffffffffffffffffffffffffffffffffffffff16815260200190815260200160002060006101000a81548160ff02191690831515021790555050565b611b44612184565b6004600083815260200190815260200160002060040160149054906101000a900460ff16611ba7576040517f08c379a0000000000000000000000000000000000000000000000000000000008152600401611b9e90612f13565b60405180910390fd5b6004600083815260200190815260200160002060030160009054906101000a900473ffffffffffffffffffffffffffffffffffffffff1673ffffffffffffffffffffffffffffffffffffffff163373ffffffffffffffffffffffffffffffffffffffff161480611c7857506004600083815260200190815260200160002060040160009054906101000a900473ffffffffffffffffffffffffffffffffffffffff1673ffffffffffffffffffffffffffffffffffffffff163373ffffffffffffffffffffffffffffffffffffffff16145b611cb7576040517f08c379a0000000000000000000000000000000000000000000000000000000008152600401611cae90612fa5565b60405180910390fd5b80600460008481526020019081526020016000206002019081611cda91906135c8565b505050565b606060008060015467ffffffffffffffff811115611d0057611cff612a61565b5b604051908082528060200260200182016040528015611d3957816020015b611d266122e3565b815260200190600190039081611d1e5790505b50905060005b600154811015612155576001151560046000600184611d5e9190612d96565b815260200190815260200160002060040160149054906101000a900460ff16151503612142573373ffffffffffffffffffffffffffffffffffffffff1660046000600184611dac9190612d96565b815260200190815260200160002060040160009054906101000a900473ffffffffffffffffffffffffffffffffffffffff1673ffffffffffffffffffffffffffffffffffffffff160361214157600060046000600184611e0c9190612d96565b81526020019081526020016000206000015490506000600460008381526020019081526020016000209050806040518060e001604052908160008201548152602001600182018054611e5d90612df9565b80601f0160208091040260200160405190810160405280929190818152602001828054611e8990612df9565b8015611ed65780601f10611eab57610100808354040283529160200191611ed6565b820191906000526020600020905b815481529060010190602001808311611eb957829003601f168201915b50505050508152602001600282018054611eef90612df9565b80601f0160208091040260200160405190810160405280929190818152602001828054611f1b90612df9565b8015611f685780601f10611f3d57610100808354040283529160200191611f68565b820191906000526020600020905b815481529060010190602001808311611f4b57829003601f168201915b505050505081526020016003820160009054906101000a900473ffffffffffffffffffffffffffffffffffffffff1673ffffffffffffffffffffffffffffffffffffffff1673ffffffffffffffffffffffffffffffffffffffff1681526020016004820160009054906101000a900473ffffffffffffffffffffffffffffffffffffffff1673ffffffffffffffffffffffffffffffffffffffff1673ffffffffffffffffffffffffffffffffffffffff1681526020016004820160149054906101000a900460ff1615151515815260200160058201805480602002602001604051908101604052809291908181526020016000905b8282101561210957838290600052602060002001805461207c90612df9565b80601f01602080910402602001604051908101604052809291908181526020018280546120a890612df9565b80156120f55780601f106120ca576101008083540402835291602001916120f5565b820191906000526020600020905b8154815290600101906020018083116120d857829003601f168201915b50505050508152602001906001019061205d565b505050508152505084868151811061212457612123612e2a565b5b602002602001018190525060018561213c9190612d96565b945050505b5b808061214d90612e59565b915050611d3f565b50809250505090565b600260009054906101000a900473ffffffffffffffffffffffffffffffffffffffff1681565b61218c610e7f565b156121cc576040517f08c379a00000000000000000000000000000000000000000000000000000000081526004016121c39061385c565b60405180910390fd5b565b6121d6612292565b60008060006101000a81548160ff0219169083151502179055507f5db9ee0a495bf2e6ff9c91a7834c1ba4fdd244a5e8aa4e537bd38aeae4b073aa6122196122db565b6040516122269190612cba565b60405180910390a1565b612238612184565b60016000806101000a81548160ff0219169083151502179055507f62e78cea01bee320cd4e420270b5ea74000d11b0c9f74754ebdbfc544b05a25861227b6122db565b6040516122889190612cba565b60405180910390a1565b61229a610e7f565b6122d9576040517f08c379a00000000000000000000000000000000000000000000000000000000081526004016122d0906138c8565b60405180910390fd5b565b600033905090565b6040518060e00160405280600081526020016060815260200160608152602001600073ffffffffffffffffffffffffffffffffffffffff168152602001600073ffffffffffffffffffffffffffffffffffffffff168152602001600015158152602001606081525090565b828054828255906000526020600020908101928215612396579160200282015b8281111561239557825182908161238591906135c8565b509160200191906001019061236e565b5b5090506123a391906123a7565b5090565b5b808211156123c757600081816123be91906123cb565b506001016123a8565b5090565b5080546123d790612df9565b6000825580601f106123e95750612408565b601f016020900490600052602060002090810190612407919061240b565b5b50565b5b8082111561242457600081600090555060010161240c565b5090565b6000604051905090565b600080fd5b600080fd5b600073ffffffffffffffffffffffffffffffffffffffff82169050919050565b60006124678261243c565b9050919050565b6124778161245c565b811461248257600080fd5b50565b6000813590506124948161246e565b92915050565b6000602082840312156124b0576124af612432565b5b60006124be84828501612485565b91505092915050565b6000819050919050565b6124da816124c7565b81146124e557600080fd5b50565b6000813590506124f7816124d1565b92915050565b60008060006060848603121561251657612515612432565b5b6000612524868287016124e8565b935050602061253586828701612485565b925050604061254686828701612485565b9150509250925092565b600081519050919050565b600082825260208201905092915050565b6000819050602082019050919050565b612585816124c7565b82525050565b600081519050919050565b600082825260208201905092915050565b60005b838110156125c55780820151818401526020810190506125aa565b60008484015250505050565b6000601f19601f8301169050919050565b60006125ed8261258b565b6125f78185612596565b93506126078185602086016125a7565b612610816125d1565b840191505092915050565b6126248161245c565b82525050565b60008115159050919050565b61263f8161262a565b82525050565b600081519050919050565b600082825260208201905092915050565b6000819050602082019050919050565b600061267d83836125e2565b905092915050565b6000602082019050919050565b600061269d82612645565b6126a78185612650565b9350836020820285016126b985612661565b8060005b858110156126f557848403895281516126d68582612671565b94506126e183612685565b925060208a019950506001810190506126bd565b50829750879550505050505092915050565b600060e08301600083015161271f600086018261257c565b506020830151848203602086015261273782826125e2565b9150506040830151848203604086015261275182826125e2565b9150506060830151612766606086018261261b565b506080830151612779608086018261261b565b5060a083015161278c60a0860182612636565b5060c083015184820360c08601526127a48282612692565b9150508091505092915050565b60006127bd8383612707565b905092915050565b6000602082019050919050565b60006127dd82612550565b6127e7818561255b565b9350836020820285016127f98561256c565b8060005b85811015612835578484038952815161281685826127b1565b9450612821836127c5565b925060208a019950506001810190506127fd565b50829750879550505050505092915050565b6000602082019050818103600083015261286181846127d2565b905092915050565b6128728161262a565b82525050565b600060208201905061288d6000830184612869565b92915050565b600080fd5b600080fd5b600080fd5b60008083601f8401126128b8576128b7612893565b5b8235905067ffffffffffffffff8111156128d5576128d4612898565b5b6020830191508360208202830111156128f1576128f061289d565b5b9250929050565b60008060006040848603121561291157612910612432565b5b600084013567ffffffffffffffff81111561292f5761292e612437565b5b61293b868287016128a2565b9350935050602061294e868287016124e8565b9150509250925092565b60006020828403121561296e5761296d612432565b5b600061297c848285016124e8565b91505092915050565b61298e816124c7565b82525050565b600082825260208201905092915050565b60006129b08261258b565b6129ba8185612994565b93506129ca8185602086016125a7565b6129d3816125d1565b840191505092915050565b6129e78161245c565b82525050565b600060c082019050612a026000830189612985565b8181036020830152612a1481886129a5565b90508181036040830152612a2881876129a5565b9050612a3760608301866129de565b612a4460808301856129de565b612a5160a0830184612869565b979650505050505050565b600080fd5b7f4e487b7100000000000000000000000000000000000000000000000000000000600052604160045260246000fd5b612a99826125d1565b810181811067ffffffffffffffff82111715612ab857612ab7612a61565b5b80604052505050565b6000612acb612428565b9050612ad78282612a90565b919050565b600067ffffffffffffffff821115612af757612af6612a61565b5b612b00826125d1565b9050602081019050919050565b82818337600083830152505050565b6000612b2f612b2a84612adc565b612ac1565b905082815260208101848484011115612b4b57612b4a612a5c565b5b612b56848285612b0d565b509392505050565b600082601f830112612b7357612b72612893565b5b8135612b83848260208601612b1c565b91505092915050565b60008060008060008060a08789031215612ba957612ba8612432565b5b600087013567ffffffffffffffff811115612bc757612bc6612437565b5b612bd389828a01612b5e565b965050602087013567ffffffffffffffff811115612bf457612bf3612437565b5b612c0089828a01612b5e565b9550506040612c1189828a01612485565b9450506060612c2289828a01612485565b935050608087013567ffffffffffffffff811115612c4357612c42612437565b5b612c4f89828a016128a2565b92509250509295509295509295565b60008060408385031215612c7557612c74612432565b5b6000612c83858286016124e8565b925050602083013567ffffffffffffffff811115612ca457612ca3612437565b5b612cb085828601612b5e565b9150509250929050565b6000602082019050612ccf60008301846129de565b92915050565b7f4f6e6c7920546865204368696566204a7573746963652048617665204163636560008201527f7373210000000000000000000000000000000000000000000000000000000000602082015250565b6000612d31602383612994565b9150612d3c82612cd5565b604082019050919050565b60006020820190508181036000830152612d6081612d24565b9050919050565b7f4e487b7100000000000000000000000000000000000000000000000000000000600052601160045260246000fd5b6000612da1826124c7565b9150612dac836124c7565b9250828201905080821115612dc457612dc3612d67565b5b92915050565b7f4e487b7100000000000000000000000000000000000000000000000000000000600052602260045260246000fd5b60006002820490506001821680612e1157607f821691505b602082108103612e2457612e23612dca565b5b50919050565b7f4e487b7100000000000000000000000000000000000000000000000000000000600052603260045260246000fd5b6000612e64826124c7565b91507fffffffffffffffffffffffffffffffffffffffffffffffffffffffffffffffff8203612e9657612e95612d67565b5b600182019050919050565b7f796f752063616e6e6f74206d616e6970756c617465206120636c6f736564206360008201527f6173650000000000000000000000000000000000000000000000000000000000602082015250565b6000612efd602383612994565b9150612f0882612ea1565b604082019050919050565b60006020820190508181036000830152612f2c81612ef0565b9050919050565b7f6f6e6c792061737369676e6564206a75646765206f7220636c65726b2063616e60008201527f2061646420657868696269747300000000000000000000000000000000000000602082015250565b6000612f8f602d83612994565b9150612f9a82612f33565b604082019050919050565b60006020820190508181036000830152612fbe81612f82565b9050919050565b600080fd5b600080fd5b600080fd5b60008083356001602003843603038112612ff157612ff0612fc5565b5b80840192508235915067ffffffffffffffff82111561301357613012612fca565b5b60208301925060018202360383131561302f5761302e612fcf565b5b509250929050565b600082905092915050565b60008190508160005260206000209050919050565b60006020601f8301049050919050565b600082821b905092915050565b6000600883026130a47fffffffffffffffffffffffffffffffffffffffffffffffffffffffffffffffff82613067565b6130ae8683613067565b95508019841693508086168417925050509392505050565b6000819050919050565b60006130eb6130e66130e1846124c7565b6130c6565b6124c7565b9050919050565b6000819050919050565b613105836130d0565b613119613111826130f2565b848454613074565b825550505050565b600090565b61312e613121565b6131398184846130fc565b505050565b5b8181101561315d57613152600082613126565b60018101905061313f565b5050565b601f8211156131a25761317381613042565b61317c84613057565b8101602085101561318b578190505b61319f61319785613057565b83018261313e565b50505b505050565b600082821c905092915050565b60006131c5600019846008026131a7565b1980831691505092915050565b60006131de83836131b4565b9150826002028217905092915050565b6131f88383613037565b67ffffffffffffffff81111561321157613210612a61565b5b61321b8254612df9565b613226828285613161565b6000601f8311600181146132555760008415613243578287013590505b61324d85826131d2565b8655506132b5565b601f19841661326386613042565b60005b8281101561328b57848901358255600182019150602085019450602081019050613266565b868310156132a857848901356132a4601f8916826131b4565b8355505b6001600288020188555050505b50505050505050565b7f6f6e6c79205265676973747261727320616e64206368696566204a757374696360008201527f65732063616e206372656174652066696c657300000000000000000000000000602082015250565b600061331a603383612994565b9150613325826132be565b604082019050919050565b600060208201905081810360008301526133498161330d565b9050919050565b7f696e76616c696420636173652049440000000000000000000000000000000000600082015250565b6000613386600f83612994565b915061339182613350565b602082019050919050565b600060208201905081810360008301526133b581613379565b9050919050565b7f696e76616c69642046496c650000000000000000000000000000000000000000600082015250565b60006133f2600c83612994565b91506133fd826133bc565b602082019050919050565b60006020820190508181036000830152613421816133e5565b9050919050565b7f696e76616c696420636f6e747261637420616464726573730000000000000000600082015250565b600061345e601883612994565b915061346982613428565b602082019050919050565b6000602082019050818103600083015261348d81613451565b9050919050565b7f20706c6561736520617474616368206578686962697428732900000000000000600082015250565b60006134ca601983612994565b91506134d582613494565b602082019050919050565b600060208201905081810360008301526134f9816134bd565b9050919050565b600067ffffffffffffffff82111561351b5761351a612a61565b5b602082029050602081019050919050565b600061353f61353a84613500565b612ac1565b905080838252602082019050602084028301858111156135625761356161289d565b5b835b818110156135a957803567ffffffffffffffff81111561358757613586612893565b5b8086016135948982612b5e565b85526020850194505050602081019050613564565b5050509392505050565b60006135c036848461352c565b905092915050565b6135d18261258b565b67ffffffffffffffff8111156135ea576135e9612a61565b5b6135f48254612df9565b6135ff828285613161565b600060209050601f8311600181146136325760008415613620578287015190505b61362a85826131d2565b865550613692565b601f19841661364086613042565b60005b8281101561366857848901518255600182019150602085019450602081019050613643565b868310156136855784890151613681601f8916826131b4565b8355505b6001600288020188555050505b505050505050565b600060408201905081810360008301526136b481856129a5565b90506136c36020830184612985565b9392505050565b7f6f6e6c792061737369676e6564206a756467652063616e20636c6f736520636160008201527f7365000000000000000000000000000000000000000000000000000000000000602082015250565b6000613726602283612994565b9150613731826136ca565b604082019050919050565b6000602082019050818103600083015261375581613719565b9050919050565b6000815461376981612df9565b6137738186612994565b9450600182166000811461378e57600181146137a4576137d7565b60ff1983168652811515602002860193506137d7565b6137ad85613042565b60005b838110156137cf578154818901526001820191506020810190506137b0565b808801955050505b50505092915050565b600060408201905081810360008301526137fa818561375c565b90506138096020830184612985565b9392505050565b7f5061757361626c653a2070617573656400000000000000000000000000000000600082015250565b6000613846601083612994565b915061385182613810565b602082019050919050565b6000602082019050818103600083015261387581613839565b9050919050565b7f5061757361626c653a206e6f7420706175736564000000000000000000000000600082015250565b60006138b2601483612994565b91506138bd8261387c565b602082019050919050565b600060208201905081810360008301526138e1816138a5565b905091905056fea26469706673582212204a85c92e1a3a8a0bb88a2dcdb4b65d68da3430abfea0649299d110555f1e664b64736f6c63430008110033",
  "linkReferences": {},
  "deployedLinkReferences": {}
}